{
  "contractName": "VotingSystem",
  "abi": [
    {
      "inputs": [],
      "stateMutability": "nonpayable",
      "type": "constructor"
    },
    {
      "anonymous": false,
      "inputs": [
        {
          "indexed": true,
          "internalType": "address",
          "name": "voter",
          "type": "address"
        },
        {
          "indexed": false,
          "internalType": "string",
          "name": "candidate",
          "type": "string"
        }
      ],
      "name": "VoteCasted",
      "type": "event"
    },
    {
      "inputs": [],
      "name": "admin",
      "outputs": [
        {
          "internalType": "address",
          "name": "",
          "type": "address"
        }
      ],
      "stateMutability": "view",
      "type": "function"
    },
    {
      "inputs": [
        {
          "internalType": "address",
          "name": "",
          "type": "address"
        }
      ],
      "name": "voters",
      "outputs": [
        {
          "internalType": "bool",
          "name": "",
          "type": "bool"
        }
      ],
      "stateMutability": "view",
      "type": "function"
    },
    {
      "inputs": [
        {
          "internalType": "string",
          "name": "",
          "type": "string"
        }
      ],
      "name": "votes",
      "outputs": [
        {
          "internalType": "uint256",
          "name": "",
          "type": "uint256"
        }
      ],
      "stateMutability": "view",
      "type": "function"
    },
    {
      "inputs": [
        {
          "internalType": "address",
          "name": "_voter",
          "type": "address"
        }
      ],
      "name": "addVoter",
      "outputs": [],
      "stateMutability": "nonpayable",
      "type": "function"
    },
    {
      "inputs": [
        {
          "internalType": "string",
          "name": "_candidate",
          "type": "string"
        }
      ],
      "name": "castVote",
      "outputs": [],
      "stateMutability": "nonpayable",
      "type": "function"
    }
  ],
  "bytecode": "0x608060405234801561000f575f80fd5b50335f806101000a81548173ffffffffffffffffffffffffffffffffffffffff021916908373ffffffffffffffffffffffffffffffffffffffff1602179055506108c28061005c5f395ff3fe608060405234801561000f575f80fd5b5060043610610055575f3560e01c80639cc2d99314610059578063a3ec138d14610075578063b99ef1fa146100a5578063f4ab9adf146100d5578063f851a440146100f1575b5f80fd5b610073600480360381019061006e91906104ba565b61010f565b005b61008f600480360381019061008a919061055b565b61021c565b60405161009c91906105a0565b60405180910390f35b6100bf60048036038101906100ba91906104ba565b610239565b6040516100cc91906105d1565b60405180910390f35b6100ef60048036038101906100ea919061055b565b610266565b005b6100f961034a565b60405161010691906105f9565b60405180910390f35b60015f3373ffffffffffffffffffffffffffffffffffffffff1673ffffffffffffffffffffffffffffffffffffffff1681526020019081526020015f205f9054906101000a900460ff16610198576040517f08c379a000000000000000000000000000000000000000000000000000000000815260040161018f90610692565b60405180910390fd5b6002816040516101a8919061071c565b90815260200160405180910390205f8154809291906101c69061075f565b91905055503373ffffffffffffffffffffffffffffffffffffffff167fb7821d50dfbda5ea310faebbeac5217bc1bb0cabe463e76b80e48d11e57df0988260405161021191906107de565b60405180910390a250565b6001602052805f5260405f205f915054906101000a900460ff1681565b6002818051602081018201805184825260208301602085012081835280955050505050505f915090505481565b5f8054906101000a900473ffffffffffffffffffffffffffffffffffffffff1673ffffffffffffffffffffffffffffffffffffffff163373ffffffffffffffffffffffffffffffffffffffff16146102f3576040517f08c379a00000000000000000000000000000000000000000000000000000000081526004016102ea9061086e565b60405180910390fd5b6001805f8373ffffffffffffffffffffffffffffffffffffffff1673ffffffffffffffffffffffffffffffffffffffff1681526020019081526020015f205f6101000a81548160ff02191690831515021790555050565b5f8054906101000a900473ffffffffffffffffffffffffffffffffffffffff1681565b5f604051905090565b5f80fd5b5f80fd5b5f80fd5b5f80fd5b5f601f19601f8301169050919050565b7f4e487b71000000000000000000000000000000000000000000000000000000005f52604160045260245ffd5b6103cc82610386565b810181811067ffffffffffffffff821117156103eb576103ea610396565b5b80604052505050565b5f6103fd61036d565b905061040982826103c3565b919050565b5f67ffffffffffffffff82111561042857610427610396565b5b61043182610386565b9050602081019050919050565b828183375f83830152505050565b5f61045e6104598461040e565b6103f4565b90508281526020810184848401111561047a57610479610382565b5b61048584828561043e565b509392505050565b5f82601f8301126104a1576104a061037e565b5b81356104b184826020860161044c565b91505092915050565b5f602082840312156104cf576104ce610376565b5b5f82013567ffffffffffffffff8111156104ec576104eb61037a565b5b6104f88482850161048d565b91505092915050565b5f73ffffffffffffffffffffffffffffffffffffffff82169050919050565b5f61052a82610501565b9050919050565b61053a81610520565b8114610544575f80fd5b50565b5f8135905061055581610531565b92915050565b5f602082840312156105705761056f610376565b5b5f61057d84828501610547565b91505092915050565b5f8115159050919050565b61059a81610586565b82525050565b5f6020820190506105b35f830184610591565b92915050565b5f819050919050565b6105cb816105b9565b82525050565b5f6020820190506105e45f8301846105c2565b92915050565b6105f381610520565b82525050565b5f60208201905061060c5f8301846105ea565b92915050565b5f82825260208201905092915050565b7f4f6e6c79207265676973746572656420766f746572732063616e2063617374205f8201527f766f746573000000000000000000000000000000000000000000000000000000602082015250565b5f61067c602583610612565b915061068782610622565b604082019050919050565b5f6020820190508181035f8301526106a981610670565b9050919050565b5f81519050919050565b5f81905092915050565b5f5b838110156106e15780820151818401526020810190506106c6565b5f8484015250505050565b5f6106f6826106b0565b61070081856106ba565b93506107108185602086016106c4565b80840191505092915050565b5f61072782846106ec565b915081905092915050565b7f4e487b71000000000000000000000000000000000000000000000000000000005f52601160045260245ffd5b5f610769826105b9565b91507fffffffffffffffffffffffffffffffffffffffffffffffffffffffffffffffff820361079b5761079a610732565b5b600182019050919050565b5f6107b0826106b0565b6107ba8185610612565b93506107ca8185602086016106c4565b6107d381610386565b840191505092915050565b5f6020820190508181035f8301526107f681846107a6565b905092915050565b7f4f6e6c792061646d696e2063616e2063616c6c20746869732066756e6374696f5f8201527f6e00000000000000000000000000000000000000000000000000000000000000602082015250565b5f610858602183610612565b9150610863826107fe565b604082019050919050565b5f6020820190508181035f8301526108858161084c565b905091905056fea2646970667358221220179595e75947fd033e936c18870f5c8bd4d989772aa40757f6adf1e6adb9c27c64736f6c63430008150033",
  "immutableReferences": {},
  "source": "// VotingSystem.sol\npragma solidity ^0.8.0;\n\ncontract VotingSystem {\n    address public admin;\n    mapping(address => bool) public voters;\n    mapping(string => uint256) public votes;\n\n    event VoteCasted(address indexed voter, string candidate);\n\n    modifier onlyAdmin() {\n        require(msg.sender == admin, \"Only admin can call this function\");\n        _;\n    }\n\n    constructor() {\n        admin = msg.sender;\n    }\n\n    function addVoter(address _voter) external onlyAdmin {\n        voters[_voter] = true;\n    }\n\n    function castVote(string memory _candidate) external {\n        require(voters[msg.sender], \"Only registered voters can cast votes\");\n        votes[_candidate]++;\n        emit VoteCasted(msg.sender, _candidate);\n    }\n}",
  "sourcePath": "/Users/rushikesh/Desktop/decentralized-voting-system/contracts/VotingSystem.sol",
  "compiler": {
    "name": "solc",
    "version": "0.8.21+commit.d9974bed.Emscripten.clang"
  },
  "schemaVersion": "3.4.16",
  "updatedAt": "2024-03-01T04:37:59.365Z",
  "devdoc": {
    "kind": "dev",
    "methods": {},
    "version": 1
  },
  "userdoc": {
    "kind": "user",
    "methods": {},
    "version": 1
  }
}